:100000000A128A11F92C00308A000408840A820737
:100010000034003400340034003480343F34F03491
:10002000FF34BE34E234A9343E3483347634BE34F3
:10003000AE342B343E343C34C334BD34D234133468
:080040003D347834D334BB34A5
:1009F2002830A801A901AA01AB0083010A128A11B9
:100A0200262D1F30031788008901831203139F01CB
:100A1200C0309F0483169F019F171F129F128312DB
:100A22001F14080083160910891009118601081085
:100A32008810881287100711071387170514851469
:100A4200051585158516890108000A128A11CD2718
:100A52000A128A110A128A1113250A128A110A121B
:100A62008A1102250A128A110A128A11CD270A1244
:100A72008A110A128A118A270A128A110A128A1103
:100A8200AF250A128A11AA010A128A1101270A1233
:100A92008A112A1C522D0A128A118E260A128A11D2
:100AA200572D0A128A1101270A128A110A128A1173
:100AB200CD270A128A1180300A128A11A9250A1238
:100AC2008A1156300A128A1104260A128A113D30FE
:100AD2000A128A1104260A128A1100300A128A1195
:100AE2002E270A128A117908A1007808A0000A129A
:100AF2008A11C6250A128A110A128A11CD270A12F0
:100B02008A11C0300A128A11A9250A128A114930A3
:100B12000A128A1104260A128A113D300A128A1117
:100B220004260A128A1102300A128A1167260A1250
:100B32008A117908A1007808A0000A128A11C62534
:100B42000A128A110A128A1155260A128A114A2D8C
:100B5200F20008108600C1270814080017083F3960
:100B6200803897001708F0390D3897001F30831628
:100B72009200873083129205FC30920581308316F1
:100B82009B002830F000F101DC2F3030A201A700D9
:100B9200A600A500A400A300210820040319F22D39
:100BA2002208233E84000A30F000F1012108F300FC
:100BB2002008F20031260A128A1170083038831395
:100BC20080000A30F000F1012108F3002008F20051
:100BD20007260A128A117108A1007008A000A20A51
:100BE200CD2D270804260A128A11260804260A1285
:100BF2008A11250804260A128A11240804260A12D8
:100C02008A112308042EF2008600C12FF401F50197
:100C12007108700403192C2EF601F60AF11B152E29
:100C22000310F00DF10D0E2E0310F40DF50D7108E9
:100C32007302031D1E2E70087202031C282E7008F8
:100C4200F2027108031CF303F30274140310F10C93
:100C5200F00CF60B152E7508F1007408F000080070
:100C6200710870040319502EF401F40AF11B3D2E91
:100C72000310F00DF10D362E71087302031D432E81
:100C820070087202031C4C2E7008F2027108031CD9
:100C9200F303F3020310F10CF00CF40B3D2E730876
:100CA200F1007208F0000800F201F301F201F30111
:100CB200CD270A128A11F20A0319F30A00307302CD
:100CC200FA300319720203180800592EFA00682735
:100CD2000A128A117308FC007208FB000530F22721
:100CE2000A128A114F270A128A117108FC00700831
:100CF200FB00C430FB020930031CFC03FC020A3077
:100D0200F2270A128A114F277108FC007008FB00B3
:100D12007C08F9007B08F80008000030A401A50156
:100D2200A001A1012E270A128A117908A5007808CC
:100D3200A400023067260A128A117908A3007808F3
:100D4200A200D3302502553003192402031CB32E0E
:100D5200D43025028030031924020318B32E121155
:100D6200AA14080000302302C93003192202031C0E
:100D7200FC2E2508F1002408F0002308F3002208C5
:100D8200F2004F270A128A117108A1007008A00010
:100D92004E302302203003192202031808002908CA
:100DA2002102031DD62E28082002031CEE2E210844
:100DB200A9002008A800D3302502B8300319240264
:100DC200031808006E302B0203180800890A053048
:100DD200AB072B08F000F101DC2FD23025022830BE
:100DE200031924020318080015302B02031C080003
:100DF2008914AB03EA2E6E302B0203180800E82E8A
:100E02000130A201A3012E270A128A117908A1003A
:100E12007808A00004302E270A128A117908A3004C
:100E22007808A200DA302102C13003192002031C23
:100E32002B2F94302302713003192202031C2B2F13
:100E4200D2302302F0300319220203182B2F12157D
:100E52002A14080012112A100800FA0068270A1240
:100E62008A117308FC007208FB000530F9270A1288
:100E72008A114F270A128A117108FC007008FB00C0
:100E82000B30F9270A128A114F277108FC007008EB
:100E9200FB007C08F9007B08F8000800F401F5016A
:100EA200701C592F7208F4070318F50A7308F50726
:100EB2000310F20DF30D0310F10CF00C7108700425
:100EC200031D512F7508F1007408F0000800F500A9
:100ED200F400F40DF40D1F087406C33974069F0064
:100EE200CD270A128A111F14CD270A128A119F14C4
:100EF2009F18792F1E08F600F701F700F6018316F6
:100F02001E08F60483121F107708F3007608F20019
:100F12000800081088108601CD270A128A11303085
:100F22008600C1270A128A11CD270A128A1130308F
:100F32008600C1270A128A11CD270A128A1130307F
:100F42008600C1270A128A11CD270A128A11383067
:100F52008600C1270A128A110F308600C1270A12A1
:100F62008A1101308600C1270A128A1106308600D2
:100F7200C1270A128A1180308600C127081408008E
:100F82008810CD270A128A11CD270A128A118814D5
:100F9200CD270A128A11CD2FF001F101F001F101E2
:100FA200F00A0319F10A00307102FF3003197002CE
:100FB20003180800D12F7008F200F20E83121708EE
:100FC2007206CF39720697007108F3007008F200BA
:100FD2000310F30CF20C0310F30CF20C72089500E0
:100FE2000800F000F1017C08F3007B08F200080021
:0E0FF200F000F1017C08F3007B08F20008001B
:02400E00E2ECE2
:00000001FF
